:1000000010C017C016C015C014C013C012C011C054
:1000100010C00FC00EC00DC00CC00BC00AC009C07C
:1000200008C011241FBECFE5D2E0DEBFCDBF02D095
:100030003FC0E6CF0FD060E080E090E214D06FEFD9
:1000400080E090E410D082E090E21BD0682F81E045
:1000500090E4F8CF8FEF86B981BB84BB17B815BA8F
:1000600080EC82BB08952FEF2ABB399A8BBB95BBDE
:1000700039986BBB969885E38A95F1F70000969ABC
:1000800008952FEF2ABB399A8BBB95BB39981ABAC2
:1000900085E38A95F1F70000979895E39A95F1F733
:1000A000000089B3979A95E39A95F1F700000895B7
:0400B000F894FFCFF2
:00000001FF
